:100000000C9434000C9451000C9451000C94510049
:100010000C9451000C9451000C9451000C9451001C
:100020000C9451000C9451000C9451000C9451000C
:100030000C9451000C9451000C9451000C945100FC
:100040000C9451000C9451000C9451000C945100EC
:100050000C9451000C9451000C9451000C945100DC
:100060000C9451000C94510011241FBECFEFD8E026
:10007000DEBFCDBF11E0A0E0B1E0E2E6F7E002C0F4
:1000800005900D92AE31B107D9F715E0AEE1B1E0C0
:1000900001C01D92A232B107E1F70E94A9010C94A0
:1000A000AF030C940000FC0184EA8093BC008091B3
:1000B000BC0087FFFCCF8281880F8093BB0084E85F
:1000C0008093BC008091BC0087FFFCCF1092BB00E6
:1000D00084E88093BC008091BC0087FFFCCF6093D4
:1000E000BB0084E88093BC008091BC0087FFFCCFFC
:1000F00084E98093BC000895DF92EF92FF920F9302
:100100001F93CF93DF93EC0110E024EAD22E04E892
:1001100090E4E92E84E9F82E3DC0612F6055CE01B0
:100120000E945300CE0160E00E945300CE0160E1C6
:100130000E945300D092BC008091BC0087FFFCCF8E
:100140008A81880F8093BB000093BC008091BC0023
:1001500087FFFCCFE092BB000093BC008091BC0005
:1001600087FFFCCF2B81129FF0011124E25EFE4F2E
:1001700090E00BC080818093BB000093BC00809115
:10018000BC0087FFFCCF9F5F3196921798F3F092E7
:10019000BC001F5F8C81869586958695181708F49C
:1001A000BCCFDF91CF911F910F91FF90EF90DF9027
:1001B0000895CF93DF93EC0180E094E0EEE1F1E06D
:1001C000DF019C011D9221503040E1F7AD81BE81DD
:1001D00041E050E02FC011962C911197922F9695E7
:1001E000969596958B81989FF00111248C91E80F3C
:1001F000F11D277012968C911297E25EFE4F8823B4
:1002000059F0CA0102C0880F991F2A95E2F79C0194
:100210008081822B80830AC0CA0102C0880F991F87
:100220002A95E2F7809520812823208313960D904C
:10023000BC91A02D109779F6DF91CF9108950F937F
:100240001F93CF93DF93EC01ED81FE8109C01381F1
:100250000481CF010E945703212F302FC901FC01D7
:100260003097A9F71E821D8280E094E0EEE1F1E074
:10027000DF019C011D9221503040E1F7DF91CF91C9
:100280001F910F9108953F924F925F926F927F92CC
:100290008F929F92AF92BF92CF92DF92EF92FF9296
:1002A0000F931F93CF93DF936C01462E542E490179
:1002B000602E7E2C10E0332433942EC0D5018C9117
:1002C00090E00C2E02C0959587950A94E2F780FF86
:1002D0001EC0F02EF40CF6018381F816C0F4848160
:1002E000E816A8F485E090E00E94AA02FC010097BD
:1002F00071F0F082E1823282D60115968D919C9147
:100300001697948383831696FC93EE9315970F5F4D
:100310002197061598F21F5F171548F400E0C7E013
:10032000D0E05401A10EB11CE12EE50CF2CFDF911B
:10033000CF911F910F91FF90EF90DF90CF90BF90E2
:10034000AF909F908F907F906F905F904F903F9075
:100350000895CF92DF92EF92FF920F931F93DF9356
:10036000CF93CDB7DEB729970FB6F894DEBF0FBE97
:10037000CDBF8CE38B8380E88C8380E48D831F82E8
:100380001E82198618861092B90088E48093B800FE
:1003900084E08093BC008E010F5F1F4FC8016EEA9E
:1003A0000E945300C80160E20E945300C80160E04F
:1003B0000E945300C80160EB0E945300C80168EC22
:1003C0000E945300C80160E00E945300C80160E130
:1003D0000E945300C80160E40E945300C80161E814
:1003E0000E945300C8016FE70E945300C80161EAF0
:1003F0000E945300C80166EA0E945300C80168EADF
:100400000E945300C8016FE30E945300C80164EAD0
:100410000E945300C80163ED0E945300C80160E0D0
:100420000E945300C80165ED0E945300C80160E8B6
:100430000E945300C80169ED0E945300C80161EF9A
:100440000E945300C8016AED0E945300C80162E196
:100450000E945300C8016BED0E945300C80160E484
:100460000E945300C8016DE80E945300C80164E176
:100470000E945300C8016FEA0E94530080E094E09C
:10048000EEE1F1E0DF019C011D9221503040E1F7E7
:10049000F02EE0E9CE2EE1E0DE2E8F2D912F0E948E
:1004A0001F018F2D912F64E144E120E031E008E04D
:1004B00078E0E72E0E9443018F2D912F64E644E1FE
:1004C00020E031E00E9443018F2D912F62E348E24A
:1004D00028E031E00E9443018F2D912F0E94D90026
:1004E0008F2D912F0E947C0080E197E2F6013197D9
:1004F000F1F70197D9F78F2D912F0E941F018F2DB2
:10050000912F64E144E120E131E008E058E0E52E7C
:100510000E9443018F2D912F64E644E120E131E0F8
:100520000E9443018F2D912F62E348E228E031E0E1
:100530000E9443018F2D912F0E94D9008F2D912F62
:100540000E947C0080E197E2F6013197F1F7019774
:10055000D9F7A3CFCF93DF93BC018230910510F47C
:1005600062E070E0A0912005B0912105ED01E0E08E
:10057000F0E040E050E021C088819981861797071C
:1005800069F48A819B81309719F09383828304C038
:100590009093210580932005FE0134C068177907E8
:1005A00038F44115510519F08417950708F4AC018A
:1005B000FE018A819B819C01E9012097E9F64115A2
:1005C0005105A9F1CA01861B970B049708F4BA01DB
:1005D000E0E0F0E02AC08D919C9111978417950777
:1005E000F9F46417750781F412968D919C91139715
:1005F000309719F09383828304C0909321058093F0
:100600002005FD0132964FC0CA01861B970BFD01E4
:10061000E80FF91F6193719302978D939C9343C0E8
:10062000FD01828193819C01D9011097A1F68091EF
:100630001E0590911F05892B41F480911A0190911C
:100640001B0190931F0580931E0540911C01509142
:100650001D014115510541F44DB75EB78091180158
:1006600090911901481B590B20911E0530911F05CF
:1006700024173507B0F4CA01821B930B861797071E
:1006800080F0AB014E5F5F4F8417950750F0420F2B
:10069000531F50931F0540931E05F90161937193F9
:1006A00002C0E0E0F0E0CF01DF91CF910895CF9359
:1006B000DF93009709F450C0EC0122971B821A8245
:1006C000A0912005B0912105109709F140E050E07C
:1006D000AC17BD0708F1BB83AA83FE0121913191BC
:1006E000E20FF31FAE17BF0779F48D919C9111971C
:1006F000280F391F2E5F3F4F3983288312968D9123
:100700009C9113979B838A834115510571F4D09373
:100710002105C093200520C012968D919C911397BE
:10072000AD01009711F0DC01D3CFFA01D383C2836E
:1007300021913191E20FF31FCE17DF0769F4888111
:100740009981280F391F2E5F3F4FFA013183208393
:100750008A819B8193838283DF91CF910895F8945E
:02076000FFCFC9
:100762003C42A581A599423C0000000081423C0028
:0E0772000000FF0000FF000020002205000034
:00000001FF
