:100000000C9434000C9451000C9451000C94510049
:100010000C9451000C9451000C9451000C9451001C
:100020000C9451000C9451000C9451000C9451000C
:100030000C9451000C9451000C9451000C945100FC
:100040000C9451000C9451000C9451000C945100EC
:100050000C9451000C9451000C9451000C945100DC
:100060000C9451000C94510011241FBECFEFD8E026
:10007000DEBFCDBF13E0A0E0B1E0E4E3FBE002C0EF
:1000800005900D92A03AB107D9F717E0A0EAB3E0C6
:1000900001C01D92A03BB107E1F70E94D9030C9467
:1000A00098050C9400001092B90088E48093B80081
:1000B00084E08093BC00089584EA8093BC00809122
:1000C000BC0087FFFCCF089584E98093BC000895AD
:1000D0008093BB0084E88093BC008091BC0087FFC4
:1000E000FCCF0895982F84EA8093BC008091BC00D7
:1000F00087FFFCCF88E78093BB0084E88093BC0037
:100100008091BC0087FFFCCF1092BB0084E88093F5
:10011000BC008091BC0087FFFCCF9093BB0084E8BB
:100120008093BC008091BC0087FFFCCF84E9809362
:10013000BC000895CF92DF92EF92FF920F931F932E
:10014000CF93DF9310EBC0E0D0E034EAC32E28E772
:10015000D22E04E890E4E92E84E9F82E812F0E9443
:10016000720080E00E94720080E10E947200C092E2
:10017000BC008091BC0087FFFCCFD092BB000093F5
:10018000BC008091BC0087FFFCCFE092BB000093D5
:10019000BC008091BC0087FFFCCF90E09E012455FD
:1001A0003C4FF901E90FF11D80818093BB00009362
:1001B000BC008091BC0087FFFCCF9F5F903889F71F
:1001C000F092BC001F5FC058DF4F183B39F6DF913B
:1001D000CF911F910F91FF90EF90DF90CF900895F6
:1001E00087FD1BC06034C8F4E62FE695E695E695DA
:1001F000F0E0F695FE2FEE27F795E795E80FF11D55
:10020000E455FC4F677081E090E002C0880F991FB1
:100210006A95E2F72081282B208308959F92AF9260
:10022000BF92CF92DF92EF92FF920F931F93CF93E3
:10023000DF93982F87FD3FC0A090AA039090AB0357
:10024000990C990C990C85E0989F7001112429E173
:1002500031E0E20EF31EBA2C892F90E001968C015A
:10026000000F111F000F111F080F191F020F131F7E
:10027000F7018081C0E0D0E0C82EDD24C6010C2E3D
:1002800002C0959587950A94E2F780FF05C0692D15
:100290006C0F8B2D0E94F0002196C830D10571F7AC
:1002A0000894E11CF11CB394E016F10609F7F6E09E
:1002B000AF0EA092AA03DF91CF911F910F91FF90F3
:1002C000EF90DF90CF90BF90AF909F900895CF9325
:1002D000DF93EC0103C021960E940E0188818823E0
:1002E000D1F7DF91CF910895EF92FF921F93DF93A3
:1002F000CF9300D000D000D0CDB7DEB79C010097DF
:1003000021F480E30E940E0128C010E07E010894D1
:10031000E11CF11CF701E10FF11DC9016AE070E079
:100320000E947F04805D80831F5FC9016AE070E0E6
:100330000E947F049B016115710561F708C011508F
:10034000F701E10FF11D80810E940E0104C07E01C2
:100350000894E11CF11C112391F726960FB6F8942E
:10036000DEBF0FBECDBFCF91DF911F91FF90EF9009
:100370000895AC01009709F46FC080FF02C04F5F81
:100380005F4FE091A603F091A703A0E0B0E02EC07C
:10039000808191818417950720F182819381109744
:1003A00029F013969C938E93129704C09093A70301
:1003B0008093A603808191812091A8033091A903A5
:1003C0002F5F3F4F3093A9032093A8032091A403EC
:1003D0003091A503280F391F3093A5032093A40360
:1003E00037C0DF01828193819C01F901309781F64A
:1003F0008091AC079091AD07009719F4E0EBF7E01E
:1004000001C0FC014C5F5F4F9A012E0F3F1F44500B
:1004100050408DB79EB7809728173907E8F451836D
:1004200040833093AD072093AC078091A80390914F
:10043000A90301969093A9038093A8038091A40334
:100440009091A503840F951F9093A5038093A40317
:100450009F012C5F3F4F02C020E030E0C9010895AA
:10046000009709F45FC0FC0134978091A20390913A
:10047000A30301969093A3038093A2038091A40306
:100480009091A50320813181821B930B9093A5034A
:100490008093A403A091A603B091A703109719F02D
:1004A000EA17FB0740F4B383A283F093A703E0931A
:1004B000A60310C0DC0112968D919C9113970097B2
:1004C00019F08E179F07B0F3938382831396FC93E2
:1004D000EE931297E091A603F091A7031DC020812F
:1004E00031812C5F3F4FDF01A20FB31F24503040FA
:1004F000A817B90711F0FC010FC08D919C911197BD
:10050000280F391F2C5F3F4F3183208312968D9126
:100510009C91139793838283309721F082819381FA
:100520000097E9F608950F931F93182F062F84E084
:1005300090E00E94B901FC01009791F4ECEAF3E02D
:10054000119287E0EC3AF807D9F71092AA031092BB
:10055000AB0380E091E00E9467010E949A00FFCF08
:1005600010830183138212821F910F9108950E94BC
:100570009302E091A003F091A103309729F49093A6
:10058000A1038093A00308959F010280F381E02DD1
:100590003097D1F7F901938382830895CF93DF9346
:1005A000C091A003D091A10307C0888169810E94F6
:1005B000F0000A80DB81C02D2097B9F7DF91CF9141
:1005C00008958F929F92AF92BF92CF92DF92EF9257
:1005D000FF920F931F93CF93DF93ECEAF3E0119216
:1005E00047E0EC3AF407D9F78091AC079091AD075A
:1005F000009729F470EB872E77E0972E01C04C010D
:10060000C090A603D090A703C0EBD7E010E000E0B5
:1006100045C028813981C90101978050944008F074
:1006200043C0F60109C0EC17FD0719F4BB24B394CD
:1006300006C00280F381E02D3097A9F7BB24C901E1
:1006400063E0969587956A95E1F7E82E882311F483
:10065000EE24E394FF24A02EA39413C0BB2019F032
:10066000812F602F08C0812F602F0E94F00007307B
:1006700020F4812F6A2D0E94F0001F5FF394FE1476
:1006800010F417FFEBCF8881998117FF04C00F5F2B
:10069000063050F410E00496C80FD91FCE0104961E
:1006A0008815990508F4B5CF1092AA0386E08093C7
:1006B000AB0385E091E00E946701C091A403D09153
:1006C000A503CE010E94740188E091E00E946701B9
:1006D0008091AC079091AD07009719F480E090E00D
:1006E00002C0805B97400E9474011092AA0387E0C9
:1006F0008093AB038CE091E00E9467018091AC078E
:100700009091AD07009719F460E070E003C0BC0160
:10071000605B77406C1B7D0B11F480E01EC020E015
:1007200030E00AC0F601808191812817390708F46A
:100730009C01F601C280D380C114D10499F784E6EC
:1007400090E0AC01249FC001259F900D349F900D37
:1007500011240E947F0484E6861B90E00E947401AD
:100760008FE091E00E94670182E191E00E946701C1
:100770002091A8033091A9038091A2039091A30333
:100780002817390719F085E191E002C087E191E06F
:100790000E9467010E949A00DF91CF911F910F91F3
:1007A000FF90EF90DF90CF90BF90AF909F908F9091
:1007B00008950F931F93CF93DF931092B90088E4AD
:1007C0008093B80084E08093BC008EEA0E9472009F
:1007D00080E20E94720080E10E94720080EB0E9421
:1007E000720088EC0E94720080E00E94720080E13A
:1007F0000E94720080E40E94720081E80E947200F0
:100800008FEF0E94720081EA0E94720086EA0E94C5
:10081000720088EA0E9472008FE30E94720084EAEC
:100820000E94720083ED0E94720080E00E947200BC
:1008300085ED0E94720080EF0E94720089ED0E9497
:10084000720082E20E9472008AED0E94720082E1D0
:100850000E9472008BED0E94720080E20E94720082
:100860008DE80E94720084E10E9472008FEA0E946B
:1008700072008AE090E00E94B90184E190E00E9459
:10088000B9018C0182E390E00E94B90185E090E01B
:100890000E94B901EC0180E590E00E94B9010E943C
:1008A000E10288E99AE320E931E0F9013197F1F7B3
:1008B0000197D9F7C8010E943002CE010E94300290
:1008C0000E94E10288E99AE320E931E0F9013197D9
:1008D000F1F70197D9F78FE090E00E94B90189E123
:1008E00090E00E94B901C0E9D1E00E94E10280E1FC
:1008F00097E2FE013197F1F70197D9F7F6CFAA1BDE
:10090000BB1B51E107C0AA1FBB1FA617B70710F0FA
:10091000A61BB70B881F991F5A95A9F7809590952C
:10092000BC01CD010895CF93DF93BC0182309105C6
:1009300010F462E070E0A091AE07B091AF07ED0156
:10094000E0E0F0E040E050E021C088819981861726
:10095000970769F48A819B81309719F0938382838A
:1009600004C09093AF078093AE07FE0134C06817B0
:10097000790738F44115510519F08417950708F4E3
:10098000AC01FE018A819B819C01E9012097E9F677
:1009900041155105A9F1CA01861B970B049708F46C
:1009A000BA01E0E0F0E02AC08D919C911197841784
:1009B0009507F9F46417750781F412968D919C914F
:1009C0001397309719F09383828304C09093AF07F5
:1009D0008093AE07FD0132964FC0CA01861B970B6C
:1009E000FD01E80FF91F6193719302978D939C931A
:1009F00043C0FD01828193819C01D9011097A1F62A
:100A00008091AC079091AD07892B41F480919B03B5
:100A100090919C039093AD078093AC0740919D0308
:100A200050919E034115510541F44DB75EB7809139
:100A3000990390919A03481B590B2091AC07309170
:100A4000AD0724173507B0F4CA01821B930B861734
:100A5000970780F0AB014E5F5F4F8417950750F00A
:100A6000420F531F5093AD074093AC07F9016193B8
:100A7000719302C0E0E0F0E0CF01DF91CF910895E3
:100A8000CF93DF93009709F450C0EC0122971B82AB
:100A90001A82A091AE07B091AF07109709F140E01C
:100AA00050E0AC17BD0708F1BB83AA83FE0121917A
:100AB0003191E20FF31FAE17BF0779F48D919C912E
:100AC0001197280F391F2E5F3F4F398328831296C5
:100AD0008D919C9113979B838A834115510571F4E5
:100AE000D093AF07C093AE0720C012968D919C9112
:100AF0001397AD01009711F0DC01D3CFFA01D38336
:100B0000C28321913191E20FF31FCE17DF0769F401
:100B100088819981280F391F2E5F3F4FFA01318359
:100B200020838A819B8193838283DF91CF91089573
:040B3000F894FFCF67
:100B34004F4F4D2100553A0020533A00463A0025C4
:100B440020004C3A0059004E000000000000000054
:100B54000000000000000000000000000000000091
:100B64000000000000000000000000000000000081
:100B74000000000000000000000000000000000071
:100B84000000000000000000000000000000000061
:100B94000000000000000000000000000000000051
:100BA4000000000000000000000000000000000041
:100BB4000000000000000000000000000000000031
:100BC4000000000000000000000000000000000021
:100BD4000000000000000000000000000000000011
:100BE4000000000000000000000000000000000001
:100BF40000000000000000000000000000000000F1
:100C040000000000000000000000000000000000E0
:100C140000000000000000000000000000000000D0
:100C240000000000000000000000000000000000C0
:100C34000000000000000000003E5149453E004213
:100C44007F400042615149462141454B31181412FD
:100C54007F1027454545393C4A494930017109050A
:100C6400033649494936064949291E0036360000EB
:100C74000000000000000000000000000000000070
:100C840000000000000000000000000000007E11D1
:100C940011117E7F494949363E41414122000000FD
:100CA40000007F494949417F09090901000000000A
:100CB4000000000000000000000000000000000030
:100CC40000000000007F404040407F0204027F7F1C
:100CD4000408107F3E4141413E0000000000000036
:100CE40000000000000000004649494931000000AE
:100CF40000003F4040403F000000000000000000B2
:100D04000000000000000708700807000000000051
:100D140000000000000000000000000000000000CF
:100D2400000000000000000000000000000020544B
:100D3400545478000000000000000000000000008F
:100D44000000385454541800000000000000000053
:100D5400000000000000000000000000000000008F
:100D64007F10284400000000000000000000000084
:100D7400000000000000000000000000000000006F
:100D8400000000000000000000000000000000005F
:100D9400000000000000000000000000000000004F
:100DA400000000000000000000000000000000003F
:100DB400000000000000000000000000000000002F
:100DC4000000000000000000002000B00700000048
:00000001FF
