:100000000C9434000C9451000C9451000C94510049
:100010000C9451000C9451000C9451000C9451001C
:100020000C9451000C9451000C9451000C9451000C
:100030000C9451000C9451000C9451000C945100FC
:100040000C9451000C9451000C9451000C945100EC
:100050000C9451000C9451000C9451000C945100DC
:100060000C9451000C94510011241FBECFEFD8E026
:10007000DEBFCDBF15E0A6E0B1E001C01D92AC30FF
:10008000B107E1F711E0A0E0B1E0E2E9F6E002C07B
:1000900005900D92A630B107D9F70E940A020C9480
:1000A00047030C9400001092B90088E48093B800D4
:1000B00084E08093BC00089584EA8093BC00809122
:1000C000BC0087FFFCCF089584E98093BC000895AD
:1000D0008093BB0084E88093BC008091BC0087FFC4
:1000E000FCCF0895982F84EA8093BC008091BC00D7
:1000F00087FFFCCF88E78093BB0084E88093BC0037
:100100008091BC0087FFFCCF1092BB0084E88093F5
:10011000BC008091BC0087FFFCCF9093BB0084E8BB
:100120008093BC008091BC0087FFFCCF84E9809362
:10013000BC000895982F84EA8093BC008091BC0095
:1001400087FFFCCF88E78093BB0084E88093BC00E6
:100150008091BC0087FFFCCF80E48093BB0084E8E3
:100160008093BC008091BC0087FFFCCF9093BB00C4
:1001700084E88093BC008091BC0087FFFCCF84E9B9
:100180008093BC0008958EEA0E94720080E20E9473
:10019000720080E10E94720080EB0E94720088EC85
:1001A0000E94720080E00E94720080E10E94720052
:1001B00080E40E94720081E80E9472008FEF0E942A
:1001C000720081EA0E94720086EA0E94720088EA48
:1001D0000E9472008FE30E94720084EA0E94720003
:1001E00083ED0E94720080E00E94720085ED0E9403
:1001F000720080EF0E94720089ED0E94720082E21C
:100200000E9472008AED0E94720082E10E947200D8
:100210008BED0E94720080E20E9472008DE80E94C5
:10022000720084E10E9472008FEA0E9472000895B9
:10023000E8E0F1E0119285E0E830F807D9F7089599
:10024000CF92DF92EF92FF920F931F93CF93DF93A2
:1002500010EBC0E0D0E034EAC32E28E7D22E04E849
:1002600090E4E92E84E9F82E812F0E94720080E04C
:100270000E94720080E10E947200C092BC008091D6
:10028000BC0087FFFCCFD092BB000093BC008091E4
:10029000BC0087FFFCCFE092BB000093BC008091C4
:1002A000BC0087FFFCCF90E09E01285F3E4FF90124
:1002B000E90FF11D80818093BB000093BC00809109
:1002C000BC0087FFFCCF9F5F903889F7F092BC009D
:1002D0001F5FC058DF4F183B39F6DF91CF911F9158
:1002E0000F91FF90EF90DF90CF90089587FD1BC096
:1002F0006034C8F4E62FE695E695E695F0E0F695CD
:10030000FE2FEE27F795E795E80FF11DE85FFE4F0A
:10031000677081E090E002C0880F991F6A95E2F74C
:100320002081282B208308950097C9F080FD019635
:1003300020910805309109052115310511F42CE0B3
:1003400035E0A901480F591F8DB79EB78097481710
:10035000590728F4509309054093080502C020E08E
:1003600030E0C90108959C0180910805909109052C
:100370002817390721F430930905209308050895BB
:100380000F931F93182F062F84E090E00E94940192
:10039000FC01009771F4E8E0F1E0119285E0E830AB
:1003A000F807D9F780E060E00E9476010E94200102
:1003B000FFCF10830183138212821F910F91089542
:1003C0000E94C001E0910601F0910701309729F4E5
:1003D000909307018093060108959F010280F381A5
:1003E000E02D3097D1F7F901938382830895CF935D
:1003F000DF93C0910601D091070107C08881698110
:100400000E9476010A80DB81C02D2097B9F7DF9129
:10041000CF910895CF93DF931092B90088E4809331
:10042000B80084E08093BC000E94C30080E460E2D6
:100430000E94E0018AE06AE00E94E00184E164E158
:100440000E94E0018EE16EE10E94E00180E090E018
:10045000C0E9D1E005C0FC01E85FFE4F10820196C3
:1004600024E080309207BCF30E94F7010E94200133
:1004700088E893E1FE013197F1F70197D9F780E021
:1004800090E0EECFCF93DF93BC018230910510F462
:1004900062E070E0A0910A05B0910B05ED01E0E08B
:1004A000F0E040E050E021C08881998186179707ED
:1004B00069F48A819B81309719F09383828304C009
:1004C00090930B0580930A05FE0134C068177907E5
:1004D00038F44115510519F08417950708F4AC015B
:1004E000FE018A819B819C01E9012097E9F6411573
:1004F0005105A9F1CA01861B970B049708F4BA01AC
:10050000E0E0F0E02AC08D919C9111978417950747
:10051000F9F46417750781F412968D919C911397E5
:10052000309719F09383828304C090930B058093D6
:100530000A05FD0132964FC0CA01861B970BFD01CB
:10054000E80FF91F6193719302978D939C9343C0B9
:10055000FD01828193819C01D9011097A1F68091C0
:10056000080590910905892B41F480910201909131
:10057000030190930905809308054091040150916F
:1005800005014115510541F44DB75EB78091000159
:1005900090910101481B590B2091080530910905E4
:1005A00024173507B0F4CA01821B930B86179707EF
:1005B00080F0AB014E5F5F4F8417950750F0420FFC
:1005C000531F5093090540930805F90161937193F6
:1005D00002C0E0E0F0E0CF01DF91CF910895CF932A
:1005E000DF93009709F450C0EC0122971B821A8216
:1005F000A0910A05B0910B05109709F140E050E079
:10060000AC17BD0708F1BB83AA83FE01219131918C
:10061000E20FF31FAE17BF0779F48D919C911197EC
:10062000280F391F2E5F3F4F3983288312968D91F3
:100630009C9113979B838A834115510571F4D09344
:100640000B05C0930A0520C012968D919C911397BB
:10065000AD01009711F0DC01D3CFFA01D383C2833F
:1006600021913191E20FF31FCE17DF0769F48881E2
:100670009981280F391F2E5F3F4FFA013183208364
:100680008A819B8193838283DF91CF910895F8942F
:02069000FFCF9A
:0606920020000C05000031
:00000001FF
