:100000000C9434000C9451000C9451000C94510049
:100010000C9451000C9451000C9451000C9451001C
:100020000C9451000C9451000C9451000C9451000C
:100030000C9451000C9451000C9451000C945100FC
:100040000C9451000C9451000C9451000C945100EC
:100050000C9451000C9451000C9451000C945100DC
:100060000C9451000C94510011241FBECFEFD8E026
:10007000DEBFCDBF13E0A0E0B1E0EEEFF9E002C0DB
:1000800005900D92AA39B107D9F717E0AAE9B3E0B4
:1000900001C01D92AA3AB107E1F70E9464030C94D3
:1000A000FD040C9400001092B90088E48093B8001D
:1000B00084E08093BC00089584EA8093BC00809122
:1000C000BC0087FFFCCF089584E98093BC000895AD
:1000D0008093BB0084E88093BC008091BC0087FFC4
:1000E000FCCF0895982F84EA8093BC008091BC00D7
:1000F00087FFFCCF88E78093BB0084E88093BC0037
:100100008091BC0087FFFCCF1092BB0084E88093F5
:10011000BC008091BC0087FFFCCF9093BB0084E8BB
:100120008093BC008091BC0087FFFCCF84E9809362
:10013000BC000895CF92DF92EF92FF920F931F932E
:10014000CF93DF9310EBC0E0D0E034EAC32E28E772
:10015000D22E04E890E4E92E84E9F82E812F0E9443
:10016000720080E00E94720080E10E947200C092E2
:10017000BC008091BC0087FFFCCFD092BB000093F5
:10018000BC008091BC0087FFFCCFE092BB000093D5
:10019000BC008091BC0087FFFCCF90E09E012A55F7
:1001A0003C4FF901E90FF11D80818093BB00009362
:1001B000BC008091BC0087FFFCCF9F5F903889F71F
:1001C000F092BC001F5FC058DF4F183B39F6DF913B
:1001D000CF911F910F91FF90EF90DF90CF900895F6
:1001E00087FD1BC06034C8F4E62FE695E695E695DA
:1001F000F0E0F695FE2FEE27F795E795E80FF11D55
:10020000EA55FC4F677081E090E002C0880F991FAB
:100210006A95E2F72081282B208308959F92AF9260
:10022000BF92CF92DF92EF92FF920F931F93CF93E3
:10023000DF93982F87FD3FC0A090A4039090A50363
:10024000990C990C990C85E0989F7001112424E178
:1002500031E0E20EF31EBA2C892F90E001968C015A
:10026000000F111F000F111F080F191F020F131F7E
:10027000F7018081C0E0D0E0C82EDD24C6010C2E3D
:1002800002C0959587950A94E2F780FF05C0692D15
:100290006C0F8B2D0E94F0002196C830D10571F7AC
:1002A0000894E11CF11CB394E016F10609F7F6E09E
:1002B000AF0EA092A403DF91CF911F910F91FF90F9
:1002C000EF90DF90CF90BF90AF909F900895CF9325
:1002D000DF93EC0103C021960E940E0188818823E0
:1002E000D1F7DF91CF910895EF92FF921F93DF93A3
:1002F000CF9300D000D000D0CDB7DEB79C010097DF
:1003000021F480E30E940E0128C010E07E010894D1
:10031000E11CF11CF701E10FF11DC9016AE070E079
:100320000E94E403805D80831F5FC9016AE070E082
:100330000E94E4039B016115710561F708C011502B
:10034000F701E10FF11D80810E940E0104C07E01C2
:100350000894E11CF11C112391F726960FB6F8942E
:10036000DEBF0FBECDBFCF91DF911F91FF90EF9009
:100370000895AC01009709F46FC080FF02C04F5F81
:100380005F4FE0919C03F0919D03A0E0B0E02EC090
:10039000808191818417950720F182819381109744
:1003A00029F013969C938E93129704C090939D030B
:1003B00080939C038081918120919E0330919F03C3
:1003C0002F5F3F4F30939F0320939E032091A00304
:1003D0003091A103280F391F3093A1032093A0036C
:1003E00037C0DF01828193819C01F901309781F64A
:1003F0008091A6079091A707009719F4EAEAF7E021
:1004000001C0FC014C5F5F4F9A012E0F3F1F44500B
:1004100050408DB79EB7809728173907E8F451836D
:1004200040833093A7072093A60780919E03909165
:100430009F03019690939F0380939E038091A00356
:100440009091A103840F951F9093A1038093A00323
:100450009F012C5F3F4F02C020E030E0C9010895AA
:10046000009709F45FC0FC0134978091A20390913A
:10047000A30301969093A3038093A2038091A0030A
:100480009091A10320813181821B930B9093A10352
:100490008093A003A0919C03B0919D03109719F045
:1004A000EA17FB0740F4B383A283F0939D03E09324
:1004B0009C0310C0DC0112968D919C9113970097BC
:1004C00019F08E179F07B0F3938382831396FC93E2
:1004D000EE931297E0919C03F0919D031DC0208143
:1004E00031812C5F3F4FDF01A20FB31F24503040FA
:1004F000A817B90711F0FC010FC08D919C911197BD
:10050000280F391F2C5F3F4F3183208312968D9126
:100510009C91139793838283309721F082819381FA
:100520000097E9F608950F931F93182F062F84E084
:1005300090E00E94B901FC01009771F4E6EAF3E053
:10054000119287E0E63AF807D9F780E060E00E9470
:10055000F0000E949A00FFCF108301831382128261
:100560001F910F9108950E949302E0919A03F091D8
:100570009B03309729F490939B0380939A030895EB
:100580009F010280F381E02D3097D1F7F901938329
:1005900082830895CF93DF93C0919A03D0919B03F8
:1005A00007C0888169810E94F0000A80DB81C02D2C
:1005B0002097B9F7DF91CF910895CF92DF92EF9214
:1005C000FF920F931F93CF93DF93E6EAF3E011922C
:1005D00087E0E63AF807D9F78091A6079091A70738
:1005E000009729F46AEAE62E67E0F62E01C07C0146
:1005F000C0909C03D0909D03CAEAD7E010E000E0D1
:100600001AC0F60106C0EC17FD0729F00280F3813D
:10061000E02D3097C1F7812F602F0E94F000888174
:1006200099811F5F17FF04C00F5F063038F410E098
:100630000496C80FD91FCE15DF0518F31092A40336
:1006400086E08093A50380E091E00E94670180919D
:10065000A0039091A1030E94740183E091E00E94A5
:1006600067018091A6079091A707009719F480E091
:1006700090E002C08A5A97400E9474011092A4032D
:1006800087E08093A50387E091E00E9467012091B5
:100690009E0330919F038091A2039091A30328179A
:1006A000390719F08DE091E002C081E191E00E94EC
:1006B00067010E949A00DF91CF911F910F91FF90E7
:1006C000EF90DF90CF900895EF92FF920F931F93DA
:1006D000CF93DF931092B90088E48093B80084E050
:1006E0008093BC008EEA0E94720080E20E94720039
:1006F00080E10E94720080EB0E94720088EC0E94F0
:10070000720080E00E94720080E10E94720080E42A
:100710000E94720081E80E9472008FEF0E947200B6
:1007200081EA0E94720086EA0E94720088EA0E94B2
:1007300072008FE30E94720084EA0E94720083EDCF
:100740000E94720080E00E94720085ED0E9472009B
:1007500080EF0E94720089ED0E94720082E20E9486
:1007600072008AED0E94720082E10E9472008BED9D
:100770000E94720080E20E9472008DE80E94720066
:1007800084E10E9472008FEA0E94720081E090E092
:100790000E94B9017C0181E090E00E94B9018C01C6
:1007A0000E94DD02C7010E943002C8010E9430028F
:1007B000C0E9D1E00E94DD0280E197E2FE013197BD
:1007C000F1F70197D9F7F6CFAA1BBB1B51E107C080
:1007D000AA1FBB1FA617B70710F0A61BB70B881FD1
:1007E000991F5A95A9F780959095BC01CD01089560
:1007F000CF93DF93BC018230910510F462E070E08A
:10080000A091A807B091A907ED01E0E0F0E040E079
:1008100050E021C0888199818617970769F48A8101
:100820009B81309719F09383828304C09093A9072A
:100830008093A807FE0134C06817790738F4411582
:10084000510519F08417950708F4AC01FE018A815F
:100850009B819C01E9012097E9F641155105A9F119
:10086000CA01861B970B049708F4BA01E0E0F0E098
:100870002AC08D919C91119784179507F9F46417FC
:10088000750781F412968D919C911397309719F00A
:100890009383828304C09093A9078093A807FD01E6
:1008A00032964FC0CA01861B970BFD01E80FF91F56
:1008B0006193719302978D939C9343C0FD01828154
:1008C00093819C01D9011097A1F68091A607909180
:1008D000A707892B41F480919603909197039093F9
:1008E000A7078093A607409198035091990341155B
:1008F000510541F44DB75EB78091940390919503F3
:10090000481B590B2091A6073091A70724173507DC
:10091000B0F4CA01821B930B8617970780F0AB01D6
:100920004E5F5F4F8417950750F0420F531F50934F
:10093000A7074093A607F9016193719302C0E0E015
:10094000F0E0CF01DF91CF910895CF93DF9300972F
:1009500009F450C0EC0122971B821A82A091A807CB
:10096000B091A907109709F140E050E0AC17BD071E
:1009700008F1BB83AA83FE0121913191E20FF31F9D
:10098000AE17BF0779F48D919C911197280F391FED
:100990002E5F3F4F3983288312968D919C91139738
:1009A0009B838A834115510571F4D093A907C093A5
:1009B000A80720C012968D919C911397AD010097C6
:1009C00011F0DC01D3CFFA01D383C283219131919D
:1009D000E20FF31FCE17DF0769F488819981280F92
:1009E000391F2E5F3F4FFA01318320838A819B811B
:0E09F00093838283DF91CF910895F894FFCF17
:1009FE00553A0020533A004C65616B3A0059455305
:100A0E00004E4F000000000000000000000000003B
:100A1E0000000000000000000000000000000000C8
:100A2E0000000000000000000000000000000000B8
:100A3E0000000000000000000000000000000000A8
:100A4E000000000000000000000000000000000098
:100A5E000000000000000000000000000000000088
:100A6E000000000000000000000000000000000078
:100A7E000000000000000000000000000000000068
:100A8E000000000000000000000000000000000058
:100A9E000000000000000000000000000000000048
:100AAE000000000000000000000000000000000038
:100ABE000000000000000000000000000000000028
:100ACE000000000000000000000000000000000018
:100ADE000000000000000000000000000000000008
:100AEE0000000000000000000000000000000000F8
:100AFE00000000003E5149453E00427F40004261E9
:100B0E005149462141454B311814127F1027454556
:100B1E0045393C4A4949300171090503364949496D
:100B2E0036064949291E0036360000000000000036
:100B3E0000000000000000000000000000000000A7
:100B4E000000000000000000007E1111117E7F49A0
:100B5E004949363E4141412200000000007F49498B
:100B6E0049417F0909090100000000000000000052
:100B7E000000000000000000000000000000000067
:100B8E007F404040407F0204027F7F0408107F3E7A
:100B9E004141413E00000000000000000000000046
:100BAE00000000464949493100000000003F404026
:100BBE00403F0000000000000000000000000000A8
:100BCE000007087008070000000000000000000089
:100BDE000000000000000000000000000000000007
:100BEE000000000000000000002054545478000063
:100BFE000000000000000000000000000038545407
:100C0E00541800000000000000000000000000006A
:100C1E0000000000000000000000007F10284400CB
:100C2E0000000000000000000000000000000000B6
:100C3E0000000000000000000000000000000000A6
:100C4E000000000000000000000000000000000096
:100C5E000000000000000000000000000000000086
:100C6E000000000000000000000000000000000076
:100C7E000000000000000000000000000000000066
:0A0C8E00000000002000AA0700008B
:00000001FF
