:100000000C9434000C943E000C943E000C943E0082
:100010000C943E000C943E000C943E000C943E0068
:100020000C943E000C943E000C943E000C943E0058
:100030000C943E000C943E000C943E000C943E0048
:100040000C943E000C943E000C943E000C943E0038
:100050000C943E000C943E000C943E000C943E0028
:100060000C943E000C943E0011241FBECFEFD8E04C
:10007000DEBFCDBF0E9414010C9440010C9400001F
:1000800084B18F6284B983E58CBD08958EBD0DB4B3
:1000900007FEFDCF089528982A988EBD0DB407FE5F
:1000A000FDCF2A9A0895289A2A988EBD0DB407FE8E
:1000B000FDCF2A9A0895289A2A989EBD0DB407FE6E
:1000C000FDCF8EBD0DB407FEFDCF2A9A0895299865
:1000D00088EE93E020E931E0F9013197F1F70197DB
:1000E000D9F7299A88EE93E020E931E0F9013197B8
:1000F000F1F70197D9F781E00E944B008CED95E074
:1001000020E931E0F9013197F1F70197D9F781E161
:100110000E944B008CED95E020E931E0F901319728
:10012000F1F70197D9F78AE30E944B0085E00E941E
:10013000530086E30E944B0080E00E94530089E256
:100140000E944B0088EE93E020E931E0F9013197FD
:10015000F1F70197D9F70895EF92FF920F931F934C
:10016000182F062F7A018AE20E944B0080E00E943D
:100170005300812F0E94530080E00E945300812F82
:100180000E9453008BE20E944B0080E00E945300CB
:10019000802F0E94530080E00E945300802F0E9415
:1001A00053008CE20E944B00C7010E945B001F912C
:1001B0000F91FF90EF9008958AE20E944B0080E03B
:1001C0000E94530080E00E94530080E00E94530090
:1001D0008FE70E9453008BE20E944B0080E00E9458
:1001E000530080E00E94530080E00E9453008FE79C
:1001F0000E9453008CE20E944B0008950F931F93BE
:10020000CF93DF938C010E94DC00C0E0D0E0C801F6
:100210000E945B00219680E4C030D807C1F7DF91CF
:10022000CF911F910F910895CF93DF9384B18F6287
:1002300084B983E58CBD85B1876085B90E9467006C
:10024000C0E9D1E080E090E00E94FE008AE06AE030
:1002500040E058EF0E94AC0084E164E140EE57E0DA
:100260000E94AC008EE16EE14FE150E00E94AC00D4
:1002700080E29EE4FE013197F1F70197D9F7E2CFD2
:04028000F894FFCF20
:00000001FF
