:100000000C9434000C9446000C9446000C9446006A
:100010000C9446000C9446000C9446000C94460048
:100020000C9446000C9446000C9446000C94460038
:100030000C9446000C9446000C9446000C94460028
:100040000C9446000C9446000C9446000C94460018
:100050000C9446000C9446000C9446000C94460008
:100060000C9446000C94460011241FBECFEFD8E03C
:10007000DEBFCDBF15E0A0E0B1E001C01D92A03011
:10008000B107E1F70E9448000C9474010C94000041
:100090000E9407010E945B0084E164E10E9463000A
:1000A0008EE164E10E94630088E264E10E946300E3
:1000B0000E94CF00FFCFE0E0F1E0119285E0E03058
:1000C000F807D9F7089587FD1BC06034C8F4E62F00
:1000D000E695E695E695F0E0F695FE2FEE27F79586
:1000E000E795E80FF11DE050FF4F677081E090E069
:1000F00002C0880F991F6A95E2F72081282B208380
:10010000089587FD1CC06034D0F4E62FE695E6958F
:10011000E695F0E0F695FE2FEE27F795E795E80FC8
:10012000F11DE050FF4F677081E090E002C0880F42
:10013000991F6A95E2F780952081282320830895EE
:1001400087FD1BC06034C8F4E62FE695E695E6957A
:10015000F0E0F695FE2FEE27F795E795E80FF11DF5
:10016000E050FF4F677081E090E002C0880F991F58
:100170006A95E2F720812827208308951F93182F7E
:100180000E945E0188E70E946A0180E00E946A0185
:10019000812F0E946A010E9466011F910895EF92CB
:1001A000FF920F931F93CF93DF9300EBC0E0D0E05B
:1001B000802F0E94BE0080E00E94BE0080E10E946D
:1001C000BE000E945E0188E70E946A0180E40E94EE
:1001D0006A0110E040E0E42E41E0F42EEC0EFD1E3A
:1001E000F701E10FF11D80810E946A011F5F103845
:1001F000B9F70E9466010F5FC058DF4F083BC1F698
:10020000DF91CF911F910F91FF90EF9008950E9481
:1002100055018EEA0E94BE0085ED0E94BE0080E876
:100220000E94BE0088EA0E94BE008FE30E94BE00CA
:1002300083ED0E94BE0080E00E94BE0080E40E9428
:10024000BE008DE80E94BE0084E10E94BE0080E2F4
:100250000E94BE0080E00E94BE0081EA0E94BE00B3
:1002600088EC0E94BE008AED0E94BE0082E10E94DE
:10027000BE0081E80E94BE008FEC0E94BE0089EDA6
:100280000E94BE0081EF0E94BE008BED0E94BE0066
:1002900080E40E94BE0084EA0E94BE0086EA0E94BA
:1002A000BE008FEA0E94BE0008951092B90088E453
:1002B0008093B80084E08093BC00089584EA809322
:1002C000BC008091BC0087FFFCCF089584E9809337
:1002D000BC0008958093BB0084E88093BC008091AB
:0C02E000BC0087FFFCCF0895F894FFCF0E
:00000001FF
